00007287103034391849101PERERA A R          23000000000000013644508SLR7010660000000001174CEYLON PETROLEUM CRP                              240817000000
00007135103200113812505KELART B H          23000000000000008011697SLR7010660000000001174CEYLON PETROLEUM CRP                              240817000000
00007010103000000334966VEHELLA K.S.N.      23000000000000016218389SLR7010660000000001174CEYLON PETROLEUM CRP                              240817000000
00007214103106003301958GEETHANI L A B      23000000000000011145584SLR7010660000000001174CEYLON PETROLEUM CRP                              240817000000
00007010103000003304182GARDIARACHCHIE D M  23000000000000013100820SLR7010660000000001174CEYLON PETROLEUM CRP                              240817000000
00007135103200120032743SIRIPALA A H        23000000000000013336871SLR7010660000000001174CEYLON PETROLEUM CRP                              240817000000
00007083103007020413386AMARATHUNGA D KAPILA23000000000000016248510SLR7010660000000001174CEYLON PETROLEUM CRP                              240817000000
00007083103000224777019PATTIYAKUMBURA NIMAL23000000000000012984135SLR7010660000000001174CEYLON PETROLEUM CRP                              240817000000
00007135103200190550475INDRAKUMARA A J     23000000000000007004867SLR7010660000000001174CEYLON PETROLEUM CRP                              240817000000
00007278103103250057974DARMAKEERTHI G L D J23000000000000005704564SLR7010660000000001174CEYLON PETROLEUM CRP                              240817000000
00007719103100010972924KORAGODA P I R      23000000000000009489901SLR7010660000000001174CEYLON PETROLEUM CRP                              240817000000
00007135103200130504422CHANDANATILAKA L V  23000000000000006783833SLR7010660000000001174CEYLON PETROLEUM CRP                              240817000000
00007278103101950211947GUNARATNA D M P P   23000000000000012575397SLR7010660000000001174CEYLON PETROLEUM CRP                              240817000000
00007008103007020412208SRI MURUGA P S      23000000000000000380627SLR7010660000000001174CEYLON PETROLEUM CRP                              240817000000
00007737103108100001430SANTHA L J M N      23000000000000001652383SLR7010660000000001174CEYLON PETROLEUM CRP                              240817000000
00007135103002070692181DE SILVA D INDRAJITH23000000000000008516664SLR7010660000000001174CEYLON PETROLEUM CRP                              240817000000
00007083103007020413191WIJAYASINGHE U C    23000000000000002225676SLR7010660000000001174CEYLON PETROLEUM CRP                              240817000000
00007083103056020497155FERNANDO M HEMANTHA 23000000000000013772121SLR7010660000000001174CEYLON PETROLEUM CRP                              240817000000
00007083103007020409578WEERASINGHE W G     23000000000000018378226SLR7010660000000001174CEYLON PETROLEUM CRP                              240817000000
00007278103100650214247SUNIL RATNAYAKA S P 23000000000000006406312SLR7010660000000001174CEYLON PETROLEUM CRP                              240817000000
00007083103000217200014GUNATHILAKA R H B   23000000000000015241639SLR7010660000000001174CEYLON PETROLEUM CRP                              240817000000
00007083103007020402441SIRIWARDENA E SANATH23000000000000002339136SLR7010660000000001174CEYLON PETROLEUM CRP                              240817000000
00007135103002075001957BALENDRA P          23000000000000014157954SLR7010660000000001174CEYLON PETROLEUM CRP                              240817000000
00007135103200190006986YOGARASA J.         23000000000000001262518SLR7010660000000001174CEYLON PETROLEUM CRP                              240817000000
00007719103109157703767RATNAYAKA R M G W T 23000000000000006604223SLR7010660000000001174CEYLON PETROLEUM CRP                              240817000000
00007083103007020404412KARUNATHILAKA D J   23000000000000002030026SLR7010660000000001174CEYLON PETROLEUM CRP                              240817000000
00007135103200168081438THILAKARATNE BANDA W W M23000000000000003439669SLR7010660000000001174CEYLON PETROLEUM CRP                              240817000000
00007135103200148078371HERATH H M Y B      23000000000000007042890SLR7010660000000001174CEYLON PETROLEUM CRP                              240817000000
00007100103905100025312BANDARA R M WIMALASIRI23000000000000000998644SLR7010660000000001174CEYLON PETROLEUM CRP                              240817000000
00007010103000078269918UBAYADEERA K D P N  23000000000000003576367SLR7010660000000001174CEYLON PETROLEUM CRP                              240817000000
00007135103200113823481ABEYGUNAWARDENE S N D23000000000000002045621SLR7010660000000001174CEYLON PETROLEUM CRP                              240817000000
00007100103906100029419JAYATILAKA D G      23000000000000002620230SLR7010660000000001174CEYLON PETROLEUM CRP                              240817000000
00007083103007020402089DE ZOYSA A J S      23000000000000002435441SLR7010660000000001174CEYLON PETROLEUM CRP                              240817000000
00007010103000001479584DHANASENA T         23000000000000015397255SLR7010660000000001174CEYLON PETROLEUM CRP                              240817000000
00007010103000004853956DAMAYANTHIE P G A RENUKA23000000000000003781423SLR7010660000000001174CEYLON PETROLEUM CRP                              240817000000
00007010103000000207831NAVARATNE D W       23000000000000004347332SLR7010660000000001174CEYLON PETROLEUM CRP                              240817000000
00007010103000075608172SANGANAYAKA S M S   23000000000000005935282SLR7010660000000001174CEYLON PETROLEUM CRP                              240817000000
00007083103073020104650SILVA F H S A       23000000000000008017457SLR7010660000000001174CEYLON PETROLEUM CRP                              240817000000
00007100103932100136201PREMALAL J M A      23000000000000021642643SLR7010660000000001174CEYLON PETROLEUM CRP                              240817000000
00007083103000207477018PERERA L T A        23000000000000000683203SLR7010660000000001174CEYLON PETROLEUM CRP                              240817000000
00007311103200410015027GUNASEKARA M D E    2300000000000000-118426SLR7010660000000001174CEYLON PETROLEUM CRP                              240817000000
00007135103200106468958WIMAL AMARASIRI J.G.23000000000000006959455SLR7010660000000001174CEYLON PETROLEUM CRP                              240817000000
00007719103100610441058MUHANDIRAMGE K P    23000000000000012570215SLR7010660000000001174CEYLON PETROLEUM CRP                              240817000000
00007278103100750186062SAMARANAYAKE H G S U23000000000000006112734SLR7010660000000001174CEYLON PETROLEUM CRP                              240817000000
00007010103000000789146ANURA PRIYARATNE U G23000000000000013756127SLR7010660000000001174CEYLON PETROLEUM CRP                              240817000000
00007056103008410005648HEMANTHA KUMARA W.S.23000000000000017517396SLR7010660000000001174CEYLON PETROLEUM CRP                              240817000000
00007135103002075004202GAMAGE S.N.D.       23000000000000011275069SLR7010660000000001174CEYLON PETROLEUM CRP                              240817000000
00007737103001026017855PINTO R.P.P.K.      23000000000000007700519SLR7010660000000001174CEYLON PETROLEUM CRP                              240817000000
00007737103111100002196FONSEKA .W.A.W.A.   23000000000000000565350SLR7010660000000001174CEYLON PETROLEUM CRP                              240817000000
00007010103000004487335LENARD E A D C      23000000000000002310571SLR7010660000000001174CEYLON PETROLEUM CRP                              240817000000
00007311103200410014514RATNASIRI .H.       23000000000000002935138SLR7010660000000001174CEYLON PETROLEUM CRP                              240817000000
00007135103200160447971BANDARANAYAKE .B.M.S.23000000000000011220722SLR7010660000000001174CEYLON PETROLEUM CRP                              240817000000
00007287103001279909101SUNIL SHANTHA .R.A.J.23000000000000002861514SLR7010660000000001174CEYLON PETROLEUM CRP                              240817000000
00007278103104550058073CHANDANA W M        23000000000000021668997SLR7010660000000001174CEYLON PETROLEUM CRP                              240817000000
00007103103982100341551PRIYANTHA D.M.S.    23000000000000004329766SLR7010660000000001174CEYLON PETROLEUM CRP                              240817000000
00007010103000076296459JAYARATNA G.        23000000000000002421405SLR7010660000000001174CEYLON PETROLEUM CRP                              240817000000
00007719103100610440353PERERA R.P.R.S.     23000000000000002550809SLR7010660000000001174CEYLON PETROLEUM CRP                              240817000000
00007207103971100296374GODAKUMBURA T.B.    230000000000000-1294260SLR7010660000000001174CEYLON PETROLEUM CRP                              240817000000
00007083103007020409569WIJEKOON W.M.P.B.   23000000000000006315467SLR7010660000000001174CEYLON PETROLEUM CRP                              240817000000
00007083103007020419344BANDARA R.M.T.      23000000000000000803766SLR7010660000000001174CEYLON PETROLEUM CRP                              240817000000
00007135103200164466665CHANDRAKUMARA H.R.S.23000000000000001379332SLR7010660000000001174CEYLON PETROLEUM CRP                              240817000000
00007083103007020406711VITHANA D.B.N.      23000000000000001448151SLR7010660000000001174CEYLON PETROLEUM CRP                              240817000000
00007010103000004452843DHARMASIRI G.G.     23000000000000004463457SLR7010660000000001174CEYLON PETROLEUM CRP                              240817000000
00007755103110010103159BANDULA M.A.D.      23000000000000004486469SLR7010660000000001174CEYLON PETROLEUM CRP                              240817000000
00007083103007020402478RANJITH H K W       23000000000000005861229SLR7010660000000001174CEYLON PETROLEUM CRP                              240817000000
00007135103200173645677NORBERT FERNANDO W.A.2300000000000000-307576SLR7010660000000001174CEYLON PETROLEUM CRP                              240817000000
00007083103007020406331SHOKKAN GANESHAN    23000000000000001992527SLR7010660000000001174CEYLON PETROLEUM CRP                              240817000000
00007135103200113823504CHANDRASIRI H.K.    23000000000000009342939SLR7010660000000001174CEYLON PETROLEUM CRP                              240817000000
00007010103000000047601LAKSHMAN G.A.       23000000000000004127961SLR7010660000000001174CEYLON PETROLEUM CRP                              240817000000
00007737103111100002765MADARASINGHA N.P.   23000000000000003896273SLR7010660000000001174CEYLON PETROLEUM CRP                              240817000000
00007083103026020225913MILINDA U.H.P.      23000000000000003989160SLR7010660000000001174CEYLON PETROLEUM CRP                              240817000000
00007083103007020413766MUNIWEERA MISS L P G S P23000000000000000-10054SLR7010660000000001174CEYLON PETROLEUM CRP                              240817000000
00007737103901100005549ALAHAKOON BANDA K M 230000000000000-2165816SLR7010660000000001174CEYLON PETROLEUM CRP                              240817000000
00007056103008200901967GUNASEKERA S.M.C.S. 23000000000000008478120SLR7010660000000001174CEYLON PETROLEUM CRP                              240817000000
00007135103200120003417ROHANA PUSHPA KUMAR M.G.23000000000000001663820SLR7010660000000001174CEYLON PETROLEUM CRP                              240817000000
00007010103000000207654GAMINI VIDANAGAMAGE 23000000000000001837449SLR7010660000000001174CEYLON PETROLEUM CRP                              240817000000
00007135103200192660838GUNATHILAKA W A     23000000000000006172596SLR7010660000000001174CEYLON PETROLEUM CRP                              240817000000
00007010103000073694633CHANDRIKA VIDANAPATHIRAN23000000000000007360182SLR7010660000000001174CEYLON PETROLEUM CRP                              240817000000
00007083103055020034979EKANAYAKE E M S S   23000000000000008193458SLR7010660000000001174CEYLON PETROLEUM CRP                              240817000000
00007278103100350257912CHAMPA LALANI P     23000000000000006782107SLR7010660000000001174CEYLON PETROLEUM CRP                              240817000000
00007010103000001285507JAYASINGHE T N      23000000000000001669992SLR7010660000000001174CEYLON PETROLEUM CRP                              240817000000
00007135103002071656534PERERA P.A.K.       23000000000000002422294SLR7010660000000001174CEYLON PETROLEUM CRP                              240817000000
00007135103200100004193EKANAYAKA W M U N B 23000000000000015961148SLR7010660000000001174CEYLON PETROLEUM CRP                              240817000000
00007083103007020068911RAJAPAKSHA  K  G  S 23000000000000009998709SLR7010660000000001174CEYLON PETROLEUM CRP                              240817000000
00007278103100750601299GUNAWARDENA S.U.C.S.23000000000000001377829SLR7010660000000001174CEYLON PETROLEUM CRP                              240817000000
00007135103002071186941RUDDRIGU B  K  N    23000000000000002081522SLR7010660000000001174CEYLON PETROLEUM CRP                              240817000000
00007010103000077692117WIJETHUNGA A G L C  23000000000000012081799SLR7010660000000001174CEYLON PETROLEUM CRP                              240817000000
00007803103948100201913KONDAGAMA K.W.A.B.  23000000000000007248643SLR7010660000000001174CEYLON PETROLEUM CRP                              240817000000
00007311103200410013825HETTIARACHCHI H.A.P.S.P.23000000000000001794076SLR7010660000000001174CEYLON PETROLEUM CRP                              240817000000
00007135103200270007051VISHWAJITH H M P    23000000000000001485982SLR7010660000000001174CEYLON PETROLEUM CRP                              240817000000
00007135103200101347609BASNAYAKE B M U K C 23000000000000000852759SLR7010660000000001174CEYLON PETROLEUM CRP                              240817000000
00007278103100750571012BASNAYAKE B.M.B.U.B.23000000000000003020738SLR7010660000000001174CEYLON PETROLEUM CRP                              240817000000
00007135103002070442248JAYAWEERA J.P.      23000000000000008725318SLR7010660000000001174CEYLON PETROLEUM CRP                              240817000000
00007135103200270358350DISSANAYAKE D.M.C.P.K.23000000000000016287496SLR7010660000000001174CEYLON PETROLEUM CRP                              240817000000
00007135103002070471430YATIGAMMANA  S  M  M  K2300000000000000-644280SLR7010660000000001174CEYLON PETROLEUM CRP                              240817000000
00007010103000084005228RATNAYAKE R M S K   23000000000000011347762SLR7010660000000001174CEYLON PETROLEUM CRP                              240817000000
00007056103008290039291HEWAVITHARANA H U   23000000000000007223790SLR7010660000000001174CEYLON PETROLEUM CRP                              240817000000
00007010103000084870868KARUNARATNE P P D N 23000000000000001584611SLR7010660000000001174CEYLON PETROLEUM CRP                              240817000000
00007719103100220818267AMARADASA  R  G     23000000000000003795469SLR7010660000000001174CEYLON PETROLEUM CRP                              240817000000
00007719103100150973734KEERAWELLA K M S W  23000000000000001365438SLR7010660000000001174CEYLON PETROLEUM CRP                              240817000000
00007083103007020401442EKANAYAKE  E M R G C K23000000000000006298524SLR7010660000000001174CEYLON PETROLEUM CRP                              240817000000
00007135103200260039387DHARMASIRI J G      23000000000000000770435SLR7010660000000001174CEYLON PETROLEUM CRP                              240817000000
00007135103200150017395KULATHILAKA R B G P 23000000000000004598024SLR7010660000000001174CEYLON PETROLEUM CRP                              240817000000
00007278103100750355158DHARMASEKARA R H G S S K23000000000000009221304SLR7010660000000001174CEYLON PETROLEUM CRP                              240817000000
00007755103228010117650UDAYA KUMARA L W G S23000000000000000776054SLR7010660000000001174CEYLON PETROLEUM CRP                              240817000000
00007083103000207154022PUSHPALATHA P G A D 23000000000000006851248SLR7010660000000001174CEYLON PETROLEUM CRP                              240817000000
00007135103200120012076KULATHILAKA P Y G A 23000000000000001174966SLR7010660000000001174CEYLON PETROLEUM CRP                              240817000000
00007278103100750410817WIJEKOON W M S K    23000000000000001499511SLR7010660000000001174CEYLON PETROLEUM CRP                              240817000000
00007010103000000062626WEERASURIYA  K  G  U23000000000000003607752SLR7010660000000001174CEYLON PETROLEUM CRP                              240817000000
00007083103007020412448GUNARATHNA R A U    23000000000000003415415SLR7010660000000001174CEYLON PETROLEUM CRP                              240817000000
00007135103984100349765WEERATUNGA S M A    23000000000000002181395SLR7010660000000001174CEYLON PETROLEUM CRP                              240817000000
00007135103002071621092DISSNAYAKA D M R B  23000000000000002463924SLR7010660000000001174CEYLON PETROLEUM CRP                              240817000000
00007056103008450004898WIJEKOON  W H M S B 2300000000000000-135092SLR7010660000000001174CEYLON PETROLEUM CRP                              240817000000
00007755103126012001469PERERA K A S        23000000000000002081588SLR7010660000000001174CEYLON PETROLEUM CRP                              240817000000
00007083103007020411856LIYANAGE  T  J      23000000000000009562195SLR7010660000000001174CEYLON PETROLEUM CRP                              240817000000
00007083103007020469570EHELIYAGODA D R M R L R23000000000000000653841SLR7010660000000001174CEYLON PETROLEUM CRP                              240817000000
00007083103007020410103RANASINGHE R.A.N.   23000000000000009377370SLR7010660000000001174CEYLON PETROLEUM CRP                              240817000000
00007755103126012001406GANEGODA G A L D    23000000000000006539808SLR7010660000000001174CEYLON PETROLEUM CRP                              240817000000
00007135103200181347518DANANANDANA M R P   23000000000000013505850SLR7010660000000001174CEYLON PETROLEUM CRP                              240817000000
00007083103007020410316MUTHUNAYAKE  .K.G.B.W.23000000000000015317595SLR7010660000000001174CEYLON PETROLEUM CRP                              240817000000
00007135103200280025520JAYASEKARA G W N    23000000000000011521513SLR7010660000000001174CEYLON PETROLEUM CRP                              240817000000
00007135103200301205668PREMANTHANI S M T   23000000000000009138597SLR7010660000000001174CEYLON PETROLEUM CRP                              240817000000
00007010103000000206185UPUL  ROHITHA  .T.H.23000000000000003421790SLR7010660000000001174CEYLON PETROLEUM CRP                              240817000000
00007083103007020404689DHARMASIRI PUSHPAKUMARA23000000000000000585225SLR7010660000000001174CEYLON PETROLEUM CRP                              240817000000
00007083103007020434811WEERASEKARA W M N N 23000000000000003234642SLR7010660000000001174CEYLON PETROLEUM CRP                              240817000000
00007135103002077011887KELART .A.R.        23000000000000019457895SLR7010660000000001174CEYLON PETROLEUM CRP                              240817000000
00007083103007020450095WIJAYAPALA .T.K.    23000000000000007974619SLR7010660000000001174CEYLON PETROLEUM CRP                              240817000000
00007278103100750498463SUGATHADASA  .G.G.C.23000000000000003251197SLR7010660000000001174CEYLON PETROLEUM CRP                              240817000000
00007311103200410014189KUSUMSIRI .A.L.A.   23000000000000003615886SLR7010660000000001174CEYLON PETROLEUM CRP                              240817000000
00007737103001026032483RAJAPAKSHA .R.P.D.K.R.23000000000000001570660SLR7010660000000001174CEYLON PETROLEUM CRP                              240817000000
00007278103101650244002ANURASOMA .D.S.     23000000000000002756708SLR7010660000000001174CEYLON PETROLEUM CRP                              240817000000
00007135103002071713738KARUNATHILAKA H G G 23000000000000001596869SLR7010660000000001174CEYLON PETROLEUM CRP                              240817000000
00007719103107060187275WIJERATNE  K W M G S K230000000000000-2969372SLR7010660000000001174CEYLON PETROLEUM CRP                              240817000000
00007010103000076161518RATNAYAKE  .R.M.C.K.23000000000000002144334SLR7010660000000001174CEYLON PETROLEUM CRP                              240817000000
00007135103200263776773RODRIGO  .M.N.R.    23000000000000005999310SLR7010660000000001174CEYLON PETROLEUM CRP                              240817000000
00007278103966100275839JAYASINGHA  .M.K.M.G.23000000000000012266393SLR7010660000000001174CEYLON PETROLEUM CRP                              240817000000
00007135103200240002544JAYAWARDANA .H.H.B.P.23000000000000002274476SLR7010660000000001174CEYLON PETROLEUM CRP                              240817000000
00007755103126012001470SHANTHA .N.M.S.     23000000000000000909633SLR7010660000000001174CEYLON PETROLEUM CRP                              240817000000
00007311103200410012747SAMARAWEERA H A S   23000000000000007774549SLR7010660000000001174CEYLON PETROLEUM CRP                              240817000000
00007083103000215952019WITHANA N W P       23000000000000005416278SLR7010660000000001174CEYLON PETROLEUM CRP                              240817000000
00007010103000002039931SENARATNE D S       23000000000000007416192SLR7010660000000001174CEYLON PETROLEUM CRP                              240817000000
00007135103002070734552SISIRANATH D K D E  23000000000000017136977SLR7010660000000001174CEYLON PETROLEUM CRP                              240817000000
00007755103228010118722JAYAWICKRAMA D G S  23000000000000002292230SLR7010660000000001174CEYLON PETROLEUM CRP                              240817000000
00007737103111100000904TAYLOR O L          23000000000000002019196SLR7010660000000001174CEYLON PETROLEUM CRP                              240817000000
00007083103223020019198RANASINGHE D I      23000000000000004218156SLR7010660000000001174CEYLON PETROLEUM CRP                              240817000000
00007010103000000206438NISHANTHA M A S V   23000000000000004195297SLR7010660000000001174CEYLON PETROLEUM CRP                              240817000000
00007278103105350064334WIMALAWEERA  .P.G.S.23000000000000003280159SLR7010660000000001174CEYLON PETROLEUM CRP                              240817000000
00007135103986100357979EKANAYAKE E M P     23000000000000020296318SLR7010660000000001174CEYLON PETROLEUM CRP                              240817000000
00007287103001602013821DHARMASIRI .P.M.    23000000000000002286876SLR7010660000000001174CEYLON PETROLEUM CRP                              240817000000
00007083103013020412689VIDANAPATHIRANA  .L.23000000000000000437156SLR7010660000000001174CEYLON PETROLEUM CRP                              240817000000
00007737103001026039255SUNIL M.A.          23000000000000014924199SLR7010660000000001174CEYLON PETROLEUM CRP                              240817000000
00007083103007020421260JAYASINGHE ARACHCHI R23000000000000015513531SLR7010660000000001174CEYLON PETROLEUM CRP                              240817000000
00007719103000099023870FERNANDO W K R      23000000000000007357712SLR7010660000000001174CEYLON PETROLEUM CRP                              240817000000
00007135103001071060606SILVA A S           23000000000000003347350SLR7010660000000001174CEYLON PETROLEUM CRP                              240817000000
00007135103200370007899PIYATHILAKA  .H.M.N.23000000000000003032404SLR7010660000000001174CEYLON PETROLEUM CRP                              240817000000
00007135103200390008968WIJENDRA W.W.P.P.   23000000000000012220467SLR7010660000000001174CEYLON PETROLEUM CRP                              240817000000
00007083103007020409888MAHEEPALA  .K.A.H.  23000000000000003192544SLR7010660000000001174CEYLON PETROLEUM CRP                              240817000000
00007083103007020419104ARIYAWANSA .P.G.S.C.23000000000000001704864SLR7010660000000001174CEYLON PETROLEUM CRP                              240817000000
00007100103927100115666JAYATHILAKA R G     23000000000000003112731SLR7010660000000001174CEYLON PETROLEUM CRP                              240817000000
00007135103200130907406TENNAKOON T.M.P.P.  23000000000000006658217SLR7010660000000001174CEYLON PETROLEUM CRP                              240817000000
00007311103200410018857RAJAPAKSHA  .K.R.S.B.23000000000000001646508SLR7010660000000001174CEYLON PETROLEUM CRP                              240817000000
00007001103000000029374JAYAWARDENA H N B U 23000000000000018914648SLR7010660000000001174CEYLON PETROLEUM CRP                              240817000000
00007135103200203857225PADMAKUMARA M A     23000000000000002320978SLR7010660000000001174CEYLON PETROLEUM CRP                              240817000000
00007719103107060167339ABEYRATNE K M C     23000000000000002208840SLR7010660000000001174CEYLON PETROLEUM CRP                              240817000000
00007010103000010341266KULARATNE  .N.H.    23000000000000008381606SLR7010660000000001174CEYLON PETROLEUM CRP                              240817000000
00007755103126012001416ARAMBEKUMBURA A G H S B23000000000000011271878SLR7010660000000001174CEYLON PETROLEUM CRP                              240817000000
00007135103002078006528S.L.M.HASAN         23000000000000006422307SLR7010660000000001174CEYLON PETROLEUM CRP                              240817000000
00007135103200210032309HAMZA K M M         23000000000000000867255SLR7010660000000001174CEYLON PETROLEUM CRP                              240817000000
00007083103057020462721KUMAR A R           23000000000000011376605SLR7010660000000001174CEYLON PETROLEUM CRP                              240817000000
00007135103002078006592THAHABAR M.M.       23000000000000004613327SLR7010660000000001174CEYLON PETROLEUM CRP                              240817000000
00007755103611010100337SIVAKUMAR T         23000000000000010368699SLR7010660000000001174CEYLON PETROLEUM CRP                              240817000000
00007135103983100345658MANOHAR S L         23000000000000002419109SLR7010660000000001174CEYLON PETROLEUM CRP                              240817000000
00007135103200167128356THAHEER  A C A      23000000000000009159869SLR7010660000000001174CEYLON PETROLEUM CRP                              240817000000
00007135103200140032978ANSAR S M           23000000000000002628262SLR7010660000000001174CEYLON PETROLEUM CRP                              240817000000
00007135103200140020678RAJENDRA K          23000000000000012798875SLR7010660000000001174CEYLON PETROLEUM CRP                              240817000000
00007135103960100251197DISSANAYAKE BANDA D M N23000000000000002072321SLR7010660000000001174CEYLON PETROLEUM CRP                              240817000000
00007214103106060304516KUMARIHAMY E G W M P23000000000000000171222SLR7010660000000001174CEYLON PETROLEUM CRP                              240817000000
00007135103200171361331CHANDRALATHA  .M.G.K.23000000000000000014034SLR7010660000000001174CEYLON PETROLEUM CRP                              240817000000
00007010103000002628491SENADEERA   M K G P 23000000000000012487429SLR7010660000000001174CEYLON PETROLEUM CRP                              240817000000
00007135103200421365783JAYASOORIYA  .K.P.  23000000000000008722003SLR7010660000000001174CEYLON PETROLEUM CRP                              240817000000
00007135103002070462897DE SILVA M H N      23000000000000010493721SLR7010660000000001174CEYLON PETROLEUM CRP                              240817000000
00007010103000000207695UPALI HERATH H.M.   23000000000000003517869SLR7010660000000001174CEYLON PETROLEUM CRP                              240817000000
00007135103200130676755HETTIARACHCHI H.V.V.23000000000000008786647SLR7010660000000001174CEYLON PETROLEUM CRP                              240817000000
00007083103007020430161CHRISTOBER S        23000000000000002732474SLR7010660000000001174CEYLON PETROLEUM CRP                              240817000000
00007135103002070470427PREMARATHNA M G     23000000000000003399578SLR7010660000000001174CEYLON PETROLEUM CRP                              240817000000
00007010103000005960037ATAPATTU A          23000000000000001817720SLR7010660000000001174CEYLON PETROLEUM CRP                              240817000000
00007010103000000101079DANDENIYA G.A.      23000000000000012774376SLR7010660000000001174CEYLON PETROLEUM CRP                              240817000000
00007135103002070685020WELIGAMAGE T.I.P.   23000000000000001335942SLR7010660000000001174CEYLON PETROLEUM CRP                              240817000000
00007056103008670008306KARUNATHILAKA R.A.  23000000000000013645668SLR7010660000000001174CEYLON PETROLEUM CRP                              240817000000
00007454103100001002042ANURA BANDARA M.G.  23000000000000005189610SLR7010660000000001174CEYLON PETROLEUM CRP                              240817000000
00007056103008021561920RATNAYAKE R.M.K.N.B.23000000000000003667684SLR7010660000000001174CEYLON PETROLEUM CRP                              240817000000
00007083103007020401813WIJERATNE K.V.S.B.  23000000000000002259327SLR7010660000000001174CEYLON PETROLEUM CRP                              240817000000
00007737103001026017222SENAVIRATNA A       23000000000000001064737SLR7010660000000001174CEYLON PETROLEUM CRP                              240817000000
00007135103002071288577YAPARATHNE Y T B    23000000000000004061186SLR7010660000000001174CEYLON PETROLEUM CRP                              240817000000
00007135103200301233683FERNANDO G S R      23000000000000001765286SLR7010660000000001174CEYLON PETROLEUM CRP                              240817000000
00007083103007020410307WEERASEKERA A.S.    23000000000000000705057SLR7010660000000001174CEYLON PETROLEUM CRP                              240817000000
00007083103007020417197RATHNAYAKE R M T C  230000000000000-1047638SLR7010660000000001174CEYLON PETROLEUM CRP                              240817000000
00007083103000180736204KUMARA N.H.M.N.A.   23000000000000002500020SLR7010660000000001174CEYLON PETROLEUM CRP                              240817000000
00007737103902100012991NISHANTHA D.W.K.    23000000000000001756798SLR7010660000000001174CEYLON PETROLEUM CRP                              240817000000
00007083103007020420164CHANDRARATNE M.T.A.D.23000000000000006561332SLR7010660000000001174CEYLON PETROLEUM CRP                              240817000000
00007083103007020410060HAPUARACHCHI R.     23000000000000005327464SLR7010660000000001174CEYLON PETROLEUM CRP                              240817000000
00007311103200410013339ABEYNANDA T W A A I 23000000000000001376355SLR7010660000000001174CEYLON PETROLEUM CRP                              240817000000
00007278103100750679271WIJESINGHE W.M.     23000000000000008321272SLR7010660000000001174CEYLON PETROLEUM CRP                              240817000000
00007056103008790006918TENNAKONE T.M.S.    23000000000000003417357SLR7010660000000001174CEYLON PETROLEUM CRP                              240817000000
00007278103100754804114PRIYANTHA W.G.S.    23000000000000001712952SLR7010660000000001174CEYLON PETROLEUM CRP                              240817000000
00007719103109020197882SILVA R.S.          23000000000000001209781SLR7010660000000001174CEYLON PETROLEUM CRP                              240817000000
00007010103000004075871BANDA R.M.S.        23000000000000001104751SLR7010660000000001174CEYLON PETROLEUM CRP                              240817000000
00007135103200150026121KUMARA .N.H.M.K.N.  23000000000000009334016SLR7010660000000001174CEYLON PETROLEUM CRP                              240817000000
00007100103930100127987KARUNANAYAKA D      23000000000000000159974SLR7010660000000001174CEYLON PETROLEUM CRP                              240817000000
00007278103100450468759TENNAKONE T.M.B.P.  23000000000000007780005SLR7010660000000001174CEYLON PETROLEUM CRP                              240817000000
00007135103002070262209RAJAGURU H.M.G.T.R. 23000000000000005419608SLR7010660000000001174CEYLON PETROLEUM CRP                              240817000000
00007278103100450418387GAMINI I.M.         23000000000000010923177SLR7010660000000001174CEYLON PETROLEUM CRP                              240817000000
00007083103007020404661BASNAYAKE B M D T B 23000000000000009636236SLR7010660000000001174CEYLON PETROLEUM CRP                              240817000000
00007278103100450382765LIYANAGE R A G U K  23000000000000008136579SLR7010660000000001174CEYLON PETROLEUM CRP                              240817000000
00007083103000218687014EKENAYAKE R E M S K 23000000000000012152878SLR7010660000000001174CEYLON PETROLEUM CRP                              240817000000
00007278103100450568478BULATHWATTE D.M.B.W.C.P.23000000000000010749496SLR7010660000000001174CEYLON PETROLEUM CRP                              240817000000
00007135103200210799627WAGOLLA D.D.D.      23000000000000010605478SLR7010660000000001174CEYLON PETROLEUM CRP                              240817000000
00007278103100450315480THILAKERATNE R G    23000000000000009446763SLR7010660000000001174CEYLON PETROLEUM CRP                              240817000000
00007135103002672005880JAYARATNE C.        23000000000000006930923SLR7010660000000001174CEYLON PETROLEUM CRP                              240817000000
00007135103987100362086JAYAWARDENA K G A C 23000000000000015580248SLR7010660000000001174CEYLON PETROLEUM CRP                              240817000000
00007135103200200013049PRIYADARSHINI P.M.S.K.23000000000000009187505SLR7010660000000001174CEYLON PETROLEUM CRP                              240817000000
00007719103107480159751MANAMPERI K.S.T.P.  23000000000000002404825SLR7010660000000001174CEYLON PETROLEUM CRP                              240817000000
00007135103002075090349PREMALAL W A        23000000000000013231659SLR7010660000000001174CEYLON PETROLEUM CRP                              240817000000
00007135103200115245797WIJESURIYA I G P K L23000000000000009728839SLR7010660000000001174CEYLON PETROLEUM CRP                              240817000000
00007010103000076750932ANANDARAJAH S.      23000000000000002402938SLR7010660000000001174CEYLON PETROLEUM CRP                              240817000000
00007010103000078688922FERNANDO M A A      23000000000000021934958SLR7010660000000001174CEYLON PETROLEUM CRP                              240817000000
00007010103000004895450WIJESOORIYA R.G.T.  23000000000000004773022SLR7010660000000001174CEYLON PETROLEUM CRP                              240817000000
00007010103000004756226WEERAKOON W M U     23000000000000007744850SLR7010660000000001174CEYLON PETROLEUM CRP                              240817000000
00007454103102000118084JAYASUNDARA W.G.J.M.S.L.23000000000000004759006SLR7010660000000001174CEYLON PETROLEUM CRP                              240817000000
00007010103000000066795MORAWALIYADDA C S   23000000000000003253439SLR7010660000000001174CEYLON PETROLEUM CRP                              240817000000
00007764103006020101640BANDARA B.T.C.      23000000000000002587462SLR7010660000000001174CEYLON PETROLEUM CRP                              240817000000
00007010103000076554269GUNAWARDANA U.W.A.  23000000000000002316975SLR7010660000000001174CEYLON PETROLEUM CRP                              240817000000
00007010103000077719368KUMARASINGHE M.A.   23000000000000004662030SLR7010660000000001174CEYLON PETROLEUM CRP                              240817000000
00007056103008190007194SAMARAKOON S.M.P.   23000000000000003317752SLR7010660000000001174CEYLON PETROLEUM CRP                              240817000000
00007454103102065578597RATNAYAKE R.M.W.P.  23000000000000003944118SLR7010660000000001174CEYLON PETROLEUM CRP                              240817000000
00007135103200221238741SUMANASIRI R.G.     23000000000000013861134SLR7010660000000001174CEYLON PETROLEUM CRP                              240817000000
00007135103200253823383SWARNAMALA B.P.G.P. 23000000000000009010357SLR7010660000000001174CEYLON PETROLEUM CRP                              240817000000
00007135103002071151780RATNAYAKE N.K.      23000000000000000316501SLR7010660000000001174CEYLON PETROLEUM CRP                              240817000000
00007083103007020428032MUTUKUMARANA P.A.R.C.23000000000000001467236SLR7010660000000001174CEYLON PETROLEUM CRP                              240817000000
00007135103002070397409BANDARA M W M S     23000000000000008981865SLR7010660000000001174CEYLON PETROLEUM CRP                              240817000000
00007719103100150629278PEIRIS T.D.C.       23000000000000001365144SLR7010660000000001174CEYLON PETROLEUM CRP                              240817000000
00007135103200280006079KALUARACHCHI K.S.   23000000000000006533839SLR7010660000000001174CEYLON PETROLEUM CRP                              240817000000
00007719103100151645633BANDARA M.G.W.M.S.S.23000000000000000953307SLR7010660000000001174CEYLON PETROLEUM CRP                              240817000000
00007135103200166520648AJANTHA M.K.G.      23000000000000004679521SLR7010660000000001174CEYLON PETROLEUM CRP                              240817000000
00007135103200161462292PALPITA P.R.D.K     23000000000000004122783SLR7010660000000001174CEYLON PETROLEUM CRP                              240817000000
00007311103200410013560SHANTHA J W A       23000000000000000656186SLR7010660000000001174CEYLON PETROLEUM CRP                              240817000000
00007010103000077620713PRIYADARSHANA N.D.C.R.23000000000000001717893SLR7010660000000001174CEYLON PETROLEUM CRP                              240817000000
00007755103126012001405SWARNATHILAKA K.G.K.R.23000000000000004429276SLR7010660000000001174CEYLON PETROLEUM CRP                              240817000000
00007083103007020430772RANATUNGA W.I.      23000000000000002045190SLR7010660000000001174CEYLON PETROLEUM CRP                              240817000000
00007010103000002619692KURUNDUGAHAMADA K G J23000000000000013693864SLR7010660000000001174CEYLON PETROLEUM CRP                              240817000000
00007010103000078584092NANDASIRI H.G.      23000000000000000447906SLR7010660000000001174CEYLON PETROLEUM CRP                              240817000000
00007135103200430005729PRIYANKARA K P G S A23000000000000002287743SLR7010660000000001174CEYLON PETROLEUM CRP                              240817000000
00007010103000078213043MUDUNKOTHGE G M G N A23000000000000000722386SLR7010660000000001174CEYLON PETROLEUM CRP                              240817000000
00007311103200410013913JAYAKODY J A M S    23000000000000000240488SLR7010660000000001174CEYLON PETROLEUM CRP                              240817000000
00007135103002071086895WIJESINGHE W M C K  23000000000000002690978SLR7010660000000001174CEYLON PETROLEUM CRP                              240817000000
00007737103901100007918JAYASINGHE J.A.I.P. 23000000000000001622190SLR7010660000000001174CEYLON PETROLEUM CRP                              240817000000
00007737103901100007820MARASINGHE D.G.S.K. 23000000000000002041534SLR7010660000000001174CEYLON PETROLEUM CRP                              240817000000
00007719103100220754684WIJETUNGA P.G.P.D.  23000000000000012780954SLR7010660000000001174CEYLON PETROLEUM CRP                              240817000000
00007010103000076033877PREMADASA U.G.L.P.  23000000000000003550772SLR7010660000000001174CEYLON PETROLEUM CRP                              240817000000
00007010103000001271399PERERA G.V.A.P.     23000000000000011869399SLR7010660000000001174CEYLON PETROLEUM CRP                              240817000000
00007728103000002897337PEIRIS P.T.S.       23000000000000008280961SLR7010660000000001174CEYLON PETROLEUM CRP                              240817000000
00007083103000261272014CHANDRAPALA L Y D P 23000000000000005405675SLR7010660000000001174CEYLON PETROLEUM CRP                              240817000000
00007135103200100906922ABEYGUNASEKERA A.W.M.P.23000000000000000825273SLR7010660000000001174CEYLON PETROLEUM CRP                              240817000000
00007135103200264419386KUMARA K K W        23000000000000013154594SLR7010660000000001174CEYLON PETROLEUM CRP                              240817000000
00007100103938100160843ALAHAKOON A M S R P K23000000000000002358906SLR7010660000000001174CEYLON PETROLEUM CRP                              240817000000
00007083103000206880013KULATUNGA W K G M   23000000000000001816992SLR7010660000000001174CEYLON PETROLEUM CRP                              240817000000
00007737103001026039263BANDARA S.R.S.S.    23000000000000000294367SLR7010660000000001174CEYLON PETROLEUM CRP                              240817000000
00007083103007020410121RANAWEERA R.A.C.S.  23000000000000000190296SLR7010660000000001174CEYLON PETROLEUM CRP                              240817000000
00007278103101050154891JASINGHA T.D.       23000000000000012971156SLR7010660000000001174CEYLON PETROLEUM CRP                              240817000000
00007135103200173806062SENEVIRATNE R M     23000000000000000513391SLR7010660000000001174CEYLON PETROLEUM CRP                              240817000000
00007135103132070613485SIRIWASANTHA L U I  23000000000000003874145SLR7010660000000001174CEYLON PETROLEUM CRP                              240817000000
00007755103228010118476RODRIGO B.K.S.S.    23000000000000001009587SLR7010660000000001174CEYLON PETROLEUM CRP                              240817000000
00007083103007020420979GOMES R.V.          23000000000000001071351SLR7010660000000001174CEYLON PETROLEUM CRP                              240817000000
00007278103100450233522PERERA K P P        23000000000000011021223SLR7010660000000001174CEYLON PETROLEUM CRP                              240817000000
00007083103000550082411KARUNARATNE J.M.S.A.B.23000000000000004798994SLR7010660000000001174CEYLON PETROLEUM CRP                              240817000000
00007083103007020416277ANURUDDHA R.A.S.    23000000000000002841758SLR7010660000000001174CEYLON PETROLEUM CRP                              240817000000
00007803103950100210127PRIYABANDULA E.G.H.M.23000000000000001646782SLR7010660000000001174CEYLON PETROLEUM CRP                              240817000000
00007103103990100374407WIJAYAGUNARATNE S.M.D.J.23000000000000013756684SLR7010660000000001174CEYLON PETROLEUM CRP                              240817000000
00007755103126012001471JAYAWICKRAMA H P    23000000000000006390942SLR7010660000000001174CEYLON PETROLEUM CRP                              240817000000
00007311103200410014301KAPURUBANDA E.M.    23000000000000007256212SLR7010660000000001174CEYLON PETROLEUM CRP                              240817000000
00007135103002070717342JAYALATH H A B P K  23000000000000007510862SLR7010660000000001174CEYLON PETROLEUM CRP                              240817000000
00007719103100178044139BANDARA A.M.R.W.    23000000000000008380858SLR7010660000000001174CEYLON PETROLEUM CRP                              240817000000
00007135103002071157841JAYAKODY W.W.A.D.   23000000000000012583997SLR7010660000000001174CEYLON PETROLEUM CRP                              240817000000
00007135103200112416064ILANGAKOON I P J    23000000000000000147313SLR7010660000000001174CEYLON PETROLEUM CRP                              240817000000
00007135103002070110256PREMASIRI L.A.      23000000000000002637007SLR7010660000000001174CEYLON PETROLEUM CRP                              240817000000
00007135103200171237136JAYASINGHE B.K.     23000000000000003529356SLR7010660000000001174CEYLON PETROLEUM CRP                              240817000000
00007010103000073221631JAYAWEERA H K P     23000000000000008520549SLR7010660000000001174CEYLON PETROLEUM CRP                              240817000000
00007010103000003325413KUMARI R.R.         23000000000000009220985SLR7010660000000001174CEYLON PETROLEUM CRP                              240817000000
00007135103002070491451JAYAMAHA J.M.D.S.S. 23000000000000007453457SLR7010660000000001174CEYLON PETROLEUM CRP                              240817000000
00007083103007020429776SANJEEWANA K H S    23000000000000001513011SLR7010660000000001174CEYLON PETROLEUM CRP                              240817000000
00007083103042020100234RENUKA PRIYADARSHANI A.K23000000000000000401126SLR7010660000000001174CEYLON PETROLEUM CRP                              240817000000
00007135103200411675544KARUNARATNE M.S.S.  23000000000000020711129SLR7010660000000001174CEYLON PETROLEUM CRP                              240817000000
00007135103002078016638SOORIYAARACHCHI S.K.M.23000000000000005441691SLR7010660000000001174CEYLON PETROLEUM CRP                              240817000000
00007083103103020166186RUPASINGHE S.D.T.N. 23000000000000005985679SLR7010660000000001174CEYLON PETROLEUM CRP                              240817000000
00007010103000000859382RANASINGHE R.K.S.   23000000000000008588401SLR7010660000000001174CEYLON PETROLEUM CRP                              240817000000
00007135103200240949673ABEYSINGHE A.A.N.M. 23000000000000010165941SLR7010660000000001174CEYLON PETROLEUM CRP                              240817000000
00007278103100450377958MALLIKAARACHCHI I S 23000000000000008785220SLR7010660000000001174CEYLON PETROLEUM CRP                              240817000000
00007135103200164659802DHARMASENA K.       23000000000000001677447SLR7010660000000001174CEYLON PETROLEUM CRP                              240817000000
00007278103104550012006WANASINGHE W.M.P.   23000000000000010315821SLR7010660000000001174CEYLON PETROLEUM CRP                              240817000000
00007311103200410018875KARUNARATNE H.M.D.  23000000000000001920876SLR7010660000000001174CEYLON PETROLEUM CRP                              240817000000
00007083103000204328011WEDIKKARA A N       23000000000000002875075SLR7010660000000001174CEYLON PETROLEUM CRP                              240817000000
00007010103000091876065RANASINGHE H.P.D.S. 23000000000000002118369SLR7010660000000001174CEYLON PETROLEUM CRP                              240817000000
00007719103107060163392JAYASHANTHA W.P.C.  23000000000000011536086SLR7010660000000001174CEYLON PETROLEUM CRP                              240817000000
00007010103000000207688JAYAWARDENA A K G   23000000000000000531946SLR7010660000000001174CEYLON PETROLEUM CRP                              240817000000
00007719103100150967572ATTANAYAKE A M P S B23000000000000012783306SLR7010660000000001174CEYLON PETROLEUM CRP                              240817000000
00007083103007020434468BANDARA H.M.N.K.    23000000000000001172678SLR7010660000000001174CEYLON PETROLEUM CRP                              240817000000
00007135103002070362716BANDARA W.M.T.B.K.  2300000000000000-130874SLR7010660000000001174CEYLON PETROLEUM CRP                              240817000000
00007010103000075360318SENEVIRATNE W.M.S.K.23000000000000003668537SLR7010660000000001174CEYLON PETROLEUM CRP                              240817000000
00007083103007020479179RATHNAYAKA R.M.N.   23000000000000000983782SLR7010660000000001174CEYLON PETROLEUM CRP                              240817000000
00007135103200108139777RAJAPAKSHA K.G.K.   23000000000000008469100SLR7010660000000001174CEYLON PETROLEUM CRP                              240817000000
00007311103200410022799PERERA U.D.J.P.     23000000000000003425216SLR7010660000000001174CEYLON PETROLEUM CRP                              240817000000
00007135103200261923700PUSHPANI B.G.       23000000000000010240586SLR7010660000000001174CEYLON PETROLEUM CRP                              240817000000
00007719103101050111524DE SILVA D.S.W.     23000000000000007651819SLR7010660000000001174CEYLON PETROLEUM CRP                              240817000000
00007135103985100353872SENADHEERA I.M.M.   23000000000000005960266SLR7010660000000001174CEYLON PETROLEUM CRP                              240817000000
00007135103002070948445SANDAKUMARI R K D R 23000000000000001259919SLR7010660000000001174CEYLON PETROLEUM CRP                              240817000000
00007135103200187653054KARUNATHILAKE  U G  23000000000000001543227SLR7010660000000001174CEYLON PETROLEUM CRP                              240817000000
00007135103200361885095MENDIS W.C.S.       23000000000000001139449SLR7010660000000001174CEYLON PETROLEUM CRP                              240817000000
00007083103000240362018RITIGAHAPOLA J.P.   23000000000000016464553SLR7010660000000001174CEYLON PETROLEUM CRP                              240817000000
00007719103100228021589KULATHUNGA K.M.L.N.K.23000000000000002053635SLR7010660000000001174CEYLON PETROLEUM CRP                              240817000000
00007135103200355251403UDAWATTA U.K.       23000000000000009451638SLR7010660000000001174CEYLON PETROLEUM CRP                              240817000000
00007135103002070677613WEERASEKERA D.G.    23000000000000011110903SLR7010660000000001174CEYLON PETROLEUM CRP                              240817000000
00007010103000076397058KUMARA R.H.A.P.     23000000000000001296181SLR7010660000000001174CEYLON PETROLEUM CRP                              240817000000
00007010103000000097689JAYASEKERA O.M.S.   23000000000000015418764SLR7010660000000001174CEYLON PETROLEUM CRP                              240817000000
00007135103782070683296KEERTHI N.A.L.      23000000000000009163508SLR7010660000000001174CEYLON PETROLEUM CRP                              240817000000
00007278103100750311770RATNAYAKE R.M.S.M.K.23000000000000000590703SLR7010660000000001174CEYLON PETROLEUM CRP                              240817000000
00007135103200110035908ATTANAYAKA A.M.M.K. 23000000000000011171061SLR7010660000000001174CEYLON PETROLEUM CRP                              240817000000
00007135103200161354425MUNASINGHE H.P.D.   23000000000000008269982SLR7010660000000001174CEYLON PETROLEUM CRP                              240817000000
00007056103008730004561WIJESINGHA W A S    23000000000000008974699SLR7010660000000001174CEYLON PETROLEUM CRP                              240817000000
00007135103002070390061SIRIWARDENE W.A.S.S.23000000000000012303848SLR7010660000000001174CEYLON PETROLEUM CRP                              240817000000
00007719103100430701831FERNANDO D.I.S.     23000000000000004527839SLR7010660000000001174CEYLON PETROLEUM CRP                              240817000000
00007737103001026045257LAMASURIYA D.C.     23000000000000001977728SLR7010660000000001174CEYLON PETROLEUM CRP                              240817000000
00007311103200410023646THILAKARATNE W A A D23000000000000000426107SLR7010660000000001174CEYLON PETROLEUM CRP                              240817000000
00007278103103750037767MEDIWAKA M.W.T.P.K. 23000000000000002940394SLR7010660000000001174CEYLON PETROLEUM CRP                              240817000000
00007278103100750317655SERASINGHE A.R.     23000000000000015531370SLR7010660000000001174CEYLON PETROLEUM CRP                              240817000000
00007100103912100054061BANDARA A.M.D.      23000000000000016337546SLR7010660000000001174CEYLON PETROLEUM CRP                              240817000000
00007311103200410020825SEELARATNE K.N.     23000000000000003689877SLR7010660000000001174CEYLON PETROLEUM CRP                              240817000000
00007100103903100017098NASLEEM A.J.M.      23000000000000007204771SLR7010660000000001174CEYLON PETROLEUM CRP                              240817000000
00007506103954100226555RAFIYADEEN S.M.     23000000000000014673369SLR7010660000000001174CEYLON PETROLEUM CRP                              240817000000
00007278103100750319615WICKRAMASINGHE W.D.T.W.23000000000000013421152SLR7010660000000001174CEYLON PETROLEUM CRP                              240817000000
00007278103104550042797FAHIM A.L.M.        23000000000000008575748SLR7010660000000001174CEYLON PETROLEUM CRP                              240817000000
00007083103000211924011SARATHCHANDRA T V   23000000000000013678982SLR7010660000000001174CEYLON PETROLEUM CRP                              240817000000
00007083103007020418859NIHAL S.A.          23000000000000003740633SLR7010660000000001174CEYLON PETROLEUM CRP                              240817000000
00007100103918100078703WELAGEDERA G.W.A.   23000000000000010665492SLR7010660000000001174CEYLON PETROLEUM CRP                              240817000000
00007010103000000103026RANASINGHE J.R.U.S. 23000000000000000531798SLR7010660000000001174CEYLON PETROLEUM CRP                              240817000000
00007278103100250216577UDUMA LEBBE I.L.H.  23000000000000000672559SLR7010660000000001174CEYLON PETROLEUM CRP                              240817000000
00007737103001010102404RANJANI M.A.P.      23000000000000014530973SLR7010660000000001174CEYLON PETROLEUM CRP                              240817000000
00007287103001377050101IDDREES M A         23000000000000010339466SLR7010660000000001174CEYLON PETROLEUM CRP                              240817000000
00007135103200112286618PRASANNA P.A.S.     23000000000000007055996SLR7010660000000001174CEYLON PETROLEUM CRP                              240817000000
00007056103008650006318MEEWALAARACHCHI M.A.N.23000000000000006591825SLR7010660000000001174CEYLON PETROLEUM CRP                              240817000000
00007083103001020209709PRASANNA G.H.       23000000000000001164502SLR7010660000000001174CEYLON PETROLEUM CRP                              240817000000
00007278103100556112088PUSHPA KUMARA K S K W23000000000000015852626SLR7010660000000001174CEYLON PETROLEUM CRP                              240817000000
00007755103126012001333HARISCHANDRA K.K.B. 23000000000000001404731SLR7010660000000001174CEYLON PETROLEUM CRP                              240817000000
00007135103200192408620PATHMASIRI H.A.N.   23000000000000018668864SLR7010660000000001174CEYLON PETROLEUM CRP                              240817000000
00007010103000074107220PERERA K A A        23000000000000002210118SLR7010660000000001174CEYLON PETROLEUM CRP                              240817000000
00007010103000004761303PREMATHILAKE E G M  23000000000000003729260SLR7010660000000001174CEYLON PETROLEUM CRP                              240817000000
00007135103200151215673KODITHUWAKKU K M R  23000000000000006644667SLR7010660000000001174CEYLON PETROLEUM CRP                              240817000000
00007083103198020051987MALAGEKUMBURA N.    23000000000000001905066SLR7010660000000001174CEYLON PETROLEUM CRP                              240817000000
00007083103007020422029SHANTHA E.A.        23000000000000001380055SLR7010660000000001174CEYLON PETROLEUM CRP                              240817000000
00007278103101050259383RANASINGHE A.D.     23000000000000002578162SLR7010660000000001174CEYLON PETROLEUM CRP                              240817000000
00007083103007020409833PRIYANTHA O V D     23000000000000016441463SLR7010660000000001174CEYLON PETROLEUM CRP                              240817000000
00007755103126012001524PRIYANKERA K.A.I.   23000000000000001704700SLR7010660000000001174CEYLON PETROLEUM CRP                              240817000000
00007737103111100003173THANUJA A M D       23000000000000000235954SLR7010660000000001174CEYLON PETROLEUM CRP                              240817000000
00007719103107330104744SENEVIRATNE E G C   23000000000000000594555SLR7010660000000001174CEYLON PETROLEUM CRP                              240817000000
00007083103007020421002WIJESEKARA M N A    23000000000000006619376SLR7010660000000001174CEYLON PETROLEUM CRP                              240817000000
00007719103107428825033PANAPITIYA P.N.D.   23000000000000010267156SLR7010660000000001174CEYLON PETROLEUM CRP                              240817000000
00007311103200410014958KAHATAPITIYA K K M N23000000000000003498145SLR7010660000000001174CEYLON PETROLEUM CRP                              240817000000
00007083103000213258018SADHAL I.A.         23000000000000017147128SLR7010660000000001174CEYLON PETROLEUM CRP                              240817000000
00007278103100754171372HETTIARACHCIGE S.D. 23000000000000005504695SLR7010660000000001174CEYLON PETROLEUM CRP                              240817000000
00007008103949100206020NALEEBDEEN N.M.     23000000000000000243078SLR7010660000000001174CEYLON PETROLEUM CRP                              240817000000
00007719103100151077708BANDARA M.M.D.P.    23000000000000004561080SLR7010660000000001174CEYLON PETROLEUM CRP                              240817000000
00007135103002070466835RATNAYAKE R M A P   23000000000000012412354SLR7010660000000001174CEYLON PETROLEUM CRP                              240817000000
00007083103000180295647YUSOOF A R M        23000000000000000997017SLR7010660000000001174CEYLON PETROLEUM CRP                              240817000000
00007083103000213259014FAIZAL M H M        23000000000000002629452SLR7010660000000001174CEYLON PETROLEUM CRP                              240817000000
00007135103200111355979WICKRAMANAYAKA M W N23000000000000008315919SLR7010660000000001174CEYLON PETROLEUM CRP                              240817000000
00007135103002071218614WEERASINGHE M.G.N.  23000000000000008805434SLR7010660000000001174CEYLON PETROLEUM CRP                              240817000000
00007463103110249754001FAWMY J M           23000000000000001675414SLR7010660000000001174CEYLON PETROLEUM CRP                              240817000000
00007311103200410021790DISSANAYAKE H M D N 23000000000000005182746SLR7010660000000001174CEYLON PETROLEUM CRP                              240817000000
00007056103008160012022AMARASIRI K.N.G.    23000000000000011930442SLR7010660000000001174CEYLON PETROLEUM CRP                              240817000000
00007135103200172657808RATNAPRIYA H.M.C.   23000000000000006129510SLR7010660000000001174CEYLON PETROLEUM CRP                              240817000000
00007728103000002134669PEMASINGHE M K G S  23000000000000012412239SLR7010660000000001174CEYLON PETROLEUM CRP                              240817000000
00007311103200410013843SENADEERA J.        23000000000000000872042SLR7010660000000001174CEYLON PETROLEUM CRP                              240817000000
00007083103007020067153WEERASINGHE O S     23000000000000015041878SLR7010660000000001174CEYLON PETROLEUM CRP                              240817000000
00007010103000009576202MOREMADA M M S K    23000000000000009731570SLR7010660000000001174CEYLON PETROLEUM CRP                              240817000000
00007719103101200209732LOKUBANDA R.M.      23000000000000005329860SLR7010660000000001174CEYLON PETROLEUM CRP                              240817000000
00007135103200172444158RATNASEKARA R.K.A.R.23000000000000011898596SLR7010660000000001174CEYLON PETROLEUM CRP                              240817000000
00007010103000000206211RUWAN T.A.          23000000000000016794064SLR7010660000000001174CEYLON PETROLEUM CRP                              240817000000
00007737103001026016542KUMARA N.P.W.       23000000000000001971082SLR7010660000000001174CEYLON PETROLEUM CRP                              240817000000
00007135103002071621281RANASINGHE H.U.     23000000000000002304096SLR7010660000000001174CEYLON PETROLEUM CRP                              240817000000
00007135103200191673545MAHANAYAKE M.M.D.A.R.23000000000000011334581SLR7010660000000001174CEYLON PETROLEUM CRP                              240817000000
00007719103100510281905SANJEEWA K P        23000000000000000792545SLR7010660000000001174CEYLON PETROLEUM CRP                              240817000000
00007135103200121349426KALUGAMA D.S.P.     23000000000000008049103SLR7010660000000001174CEYLON PETROLEUM CRP                              240817000000
00007135103200160012938SILVA W.U.U.K.      23000000000000001781953SLR7010660000000001174CEYLON PETROLEUM CRP                              240817000000
00007278103104856003607RAJAPAKSHE R M M    23000000000000013795696SLR7010660000000001174CEYLON PETROLEUM CRP                              240817000000
00007278103104553337595EKENAYAKE E.M.P.K.  23000000000000012765677SLR7010660000000001174CEYLON PETROLEUM CRP                              240817000000
00007083103000213456015RAJAKARUNA D Y A DE S23000000000000014284747SLR7010660000000001174CEYLON PETROLEUM CRP                              240817000000
00007278103100750445637SAMARAVIJAYA S.G.S. 23000000000000005761856SLR7010660000000001174CEYLON PETROLEUM CRP                              240817000000
00007010103000077493170GAMAGE M.G.J.N.     23000000000000013251227SLR7010660000000001174CEYLON PETROLEUM CRP                              240817000000
00007056103008160045389JAYAKODY J.A.A.N.   23000000000000002212756SLR7010660000000001174CEYLON PETROLEUM CRP                              240817000000
00007083103007020490288ATIGALA P M I       23000000000000007293319SLR7010660000000001174CEYLON PETROLEUM CRP                              240817000000
00007135103200157062535PRADEEP M.K.S.      23000000000000002270062SLR7010660000000001174CEYLON PETROLEUM CRP                              240817000000
00007083103007020402371AMARASINGHE A P A   23000000000000001339927SLR7010660000000001174CEYLON PETROLEUM CRP                              240817000000
00007737103111100005536SENEVIRATNE J.A.P.  23000000000000002063378SLR7010660000000001174CEYLON PETROLEUM CRP                              240817000000
00007737103111100005535PANANGAMA P.M.      23000000000000002128171SLR7010660000000001174CEYLON PETROLEUM CRP                              240817000000
00007083103000228763017PEIRIS P.U.S.I.     23000000000000004074325SLR7010660000000001174CEYLON PETROLEUM CRP                              240817000000
00007135103200152334561PRABASHANI P G A    23000000000000010971724SLR7010660000000001174CEYLON PETROLEUM CRP                              240817000000
00007083103000216568018FAZIL A W M         23000000000000006249453SLR7010660000000001174CEYLON PETROLEUM CRP                              240817000000
00007135103200213823382FERNANDO A.K.P.     23000000000000011128358SLR7010660000000001174CEYLON PETROLEUM CRP                              240817000000
00007278103100950019780WELIVITAGODA A.T.   23000000000000002262623SLR7010660000000001174CEYLON PETROLEUM CRP                              240817000000
00007278103101850108189SANDANI H G S       23000000000000008016730SLR7010660000000001174CEYLON PETROLEUM CRP                              240817000000
00007135103200130007176DAMAYANTHI M.S.     23000000000000009340480SLR7010660000000001174CEYLON PETROLEUM CRP                              240817000000
00007083103000213803011ATAPATTU A.M.A.K.   23000000000000005040176SLR7010660000000001174CEYLON PETROLEUM CRP                              240817000000
00007083103007020418141NANDUSIRI L P S     23000000000000003974966SLR7010660000000001174CEYLON PETROLEUM CRP                              240817000000
00007135103200193919827NEELAGOLLA H M G    23000000000000007042479SLR7010660000000001174CEYLON PETROLEUM CRP                              240817000000
00007010103000005192034SAMANTHI S.H.D.     23000000000000002400483SLR7010660000000001174CEYLON PETROLEUM CRP                              240817000000
00007311103200410008614JAYAWARDENA M.G.A   23000000000000008665240SLR7010660000000001174CEYLON PETROLEUM CRP                              240817000000
00007135103200101356922SENARATNE R H G N   23000000000000000751344SLR7010660000000001174CEYLON PETROLEUM CRP                              240817000000
00007278103100750696044BATAGALLA T.M.      23000000000000015300315SLR7010660000000001174CEYLON PETROLEUM CRP                              240817000000
00007755103406010102961DISSANAYAKE A M V S B23000000000000000629182SLR7010660000000001174CEYLON PETROLEUM CRP                              240817000000
00007001103933100140308BANDARA K S M S     23000000000000010371821SLR7010660000000001174CEYLON PETROLEUM CRP                              240817000000
00007755103228010111207SAMARASIRI M.G.S.   23000000000000003666143SLR7010660000000001174CEYLON PETROLEUM CRP                              240817000000
00007083103024020378433THUSHARI U.H.R. MRS 23000000000000006183651SLR7010660000000001174CEYLON PETROLEUM CRP                              240817000000
00007010103000000072358DISSANAYAKE D.M.D.V.B.23000000000000002963085SLR7010660000000001174CEYLON PETROLEUM CRP                              240817000000
00007719103100840271039ALWEERA A.M.W.K.    23000000000000001242278SLR7010660000000001174CEYLON PETROLEUM CRP                              240817000000
00007010103000076102497SURAWEERA U.        23000000000000004572239SLR7010660000000001174CEYLON PETROLEUM CRP                              240817000000
00007287103000009132360MIKTHAR S.M.        23000000000000002380537SLR7010660000000001174CEYLON PETROLEUM CRP                              240817000000
00007010103000006404845PUSHPA KUMARA K.K.N.23000000000000010542297SLR7010660000000001174CEYLON PETROLEUM CRP                              240817000000
00007135103200164402323UPASENA I.V.P.      23000000000000006369273SLR7010660000000001174CEYLON PETROLEUM CRP                              240817000000
00007083103007020410325RAJARATNE A.D.M.    23000000000000000868670SLR7010660000000001174CEYLON PETROLEUM CRP                              240817000000
00007719103100610420387ADIKARI A.M.J.      23000000000000012507753SLR7010660000000001174CEYLON PETROLEUM CRP                              240817000000
00007056103008428026101JAYATISSA B.G.D.N.  23000000000000016428655SLR7010660000000001174CEYLON PETROLEUM CRP                              240817000000
00007278103104550017083KUMARIHAMY R.M.P.   23000000000000006738540SLR7010660000000001174CEYLON PETROLEUM CRP                              240817000000
00007135103200103814524NILMINI K.G.D.      23000000000000005141382SLR7010660000000001174CEYLON PETROLEUM CRP                              240817000000
00007135103200110011655NEVIL S D           23000000000000009453187SLR7010660000000001174CEYLON PETROLEUM CRP                              240817000000
00007056103008270006109DEEPIKA G.K.N.      23000000000000011007597SLR7010660000000001174CEYLON PETROLEUM CRP                              240817000000
00007135103200141259865JAYASINGHE S N      23000000000000005462400SLR7010660000000001174CEYLON PETROLEUM CRP                              240817000000
00007135103002077013968DISSANAYAKE D R N   23000000000000004785514SLR7010660000000001174CEYLON PETROLEUM CRP                              240817000000
00007135103200210019054WEERASINGHE M A K   23000000000000001902188SLR7010660000000001174CEYLON PETROLEUM CRP                              240817000000
00007135103200130434101GAMINI K W A        23000000000000002765556SLR7010660000000001174CEYLON PETROLEUM CRP                              240817000000
00007083103007020425008KARUNARATHNE C P    23000000000000013801460SLR7010660000000001174CEYLON PETROLEUM CRP                              240817000000
00007056103008810032398PERERA L.S.D.       23000000000000008642213SLR7010660000000001174CEYLON PETROLEUM CRP                              240817000000
00007719103100040976741KARUNATHILAKA K.U.  23000000000000000262566SLR7010660000000001174CEYLON PETROLEUM CRP                              240817000000
00007311103200410025501CHAMINDA R M        23000000000000003794620SLR7010660000000001174CEYLON PETROLEUM CRP                              240817000000
00007755103228010119490GUNARATHNE S        23000000000000007297073SLR7010660000000001174CEYLON PETROLEUM CRP                              240817000000
00007083103122020166132KUMARA B G A N      23000000000000005673368SLR7010660000000001174CEYLON PETROLEUM CRP                              240817000000
00007755103116010115178PATHIRAJA S.        23000000000000002908175SLR7010660000000001174CEYLON PETROLEUM CRP                              240817000000
00007135103002070412361ABEYRATNE M G T K   23000000000000006585699SLR7010660000000001174CEYLON PETROLEUM CRP                              240817000000
00007135103200120444236BANDARA R M SAMAN   23000000000000001029054SLR7010660000000001174CEYLON PETROLEUM CRP                              240817000000
00007719103100030679046PRIYANTHA P.B.N.    23000000000000002760630SLR7010660000000001174CEYLON PETROLEUM CRP                              240817000000
00007755103228010118538WIJEGUNASINGHE L D  23000000000000001238536SLR7010660000000001174CEYLON PETROLEUM CRP                              240817000000
00007737103102100010461NISHANTHA M A D ANURA23000000000000015022272SLR7010660000000001174CEYLON PETROLEUM CRP                              240817000000
00007737103001260071152ASHRAFF M Y M       23000000000000002557990SLR7010660000000001174CEYLON PETROLEUM CRP                              240817000000
00007803103961100255304DISSANAYAKE S.N.C.  23000000000000004569433SLR7010660000000001174CEYLON PETROLEUM CRP                              240817000000
00007311103200410021480LIYANAGE R U        23000000000000000388920SLR7010660000000001174CEYLON PETROLEUM CRP                              240817000000
00007278103100850122363UDAYA KUMARA H.D.C. 23000000000000003734417SLR7010660000000001174CEYLON PETROLEUM CRP                              240817000000
00007083103074020033957RANDUNU R.P.S.      23000000000000014734648SLR7010660000000001174CEYLON PETROLEUM CRP                              240817000000
00007083103000219493019SAMARAWICKRAMA V S N D23000000000000007268588SLR7010660000000001174CEYLON PETROLEUM CRP                              240817000000
00007083103007020450086NAWARATNE K.G.L.    23000000000000001271718SLR7010660000000001174CEYLON PETROLEUM CRP                              240817000000
00007278103102950016784SENASEKERA M.W.E.C.G.23000000000000009200798SLR7010660000000001174CEYLON PETROLEUM CRP                              240817000000
00007755103228010118306RAJAPAKSHA C J      23000000000000006711679SLR7010660000000001174CEYLON PETROLEUM CRP                              240817000000
00007311103200410021499SADATH J A J M      23000000000000000894187SLR7010660000000001174CEYLON PETROLEUM CRP                              240817000000
00007135103200191354201ATHAUDA A.M.B.D.M.K.23000000000000001962552SLR7010660000000001174CEYLON PETROLEUM CRP                              240817000000
00007135103200230113363JAYASINGHE H.A.N.   23000000000000002813395SLR7010660000000001174CEYLON PETROLEUM CRP                              240817000000
00007092103008149502040JAYASINGHE D.C.     23000000000000010222605SLR7010660000000001174CEYLON PETROLEUM CRP                              240817000000
00007135103200191019702L A KUMARI          23000000000000010793154SLR7010660000000001174CEYLON PETROLEUM CRP                              240817000000
00007010103000000097519THALAGUNE E.M.G.W.S.B.23000000000000014319645SLR7010660000000001174CEYLON PETROLEUM CRP                              240817000000
00007737103201100014035WIMALARATNE P.M.J.  23000000000000005169588SLR7010660000000001174CEYLON PETROLEUM CRP                              240817000000
00007135103200240032794VIJAYATHARAN V.     23000000000000001634322SLR7010660000000001174CEYLON PETROLEUM CRP                              240817000000
00007010103000000014701THILAKARATNA K A J S23000000000000010015549SLR7010660000000001174CEYLON PETROLEUM CRP                              240817000000
00007278103103654952720PERERA K.A.J.N.     23000000000000010234513SLR7010660000000001174CEYLON PETROLEUM CRP                              240817000000
00007135103200153321298SURAWEERA D P S I   23000000000000005630309SLR7010660000000001174CEYLON PETROLEUM CRP                              240817000000
00007083103007020413261DE SILVA K G        23000000000000001866527SLR7010660000000001174CEYLON PETROLEUM CRP                              240817000000
00007083103007020404731WANIGASEKARA S P    23000000000000000610644SLR7010660000000001174CEYLON PETROLEUM CRP                              240817000000
00007010103000000206176PREETHI KUMARI A P D U23000000000000008024742SLR7010660000000001174CEYLON PETROLEUM CRP                              240817000000
00007737103001026017466JAYALATH K P D U W  23000000000000011620168SLR7010660000000001174CEYLON PETROLEUM CRP                              240817000000
00007083103198020028590PAHIM P.M.K.M.      23000000000000006888884SLR7010660000000001174CEYLON PETROLEUM CRP                              240817000000
00007463103110189953001HASRAB M W M        23000000000000010161715SLR7010660000000001174CEYLON PETROLEUM CRP                              240817000000
00007083103007020412828WICKRAMASINGHE M S  23000000000000006884676SLR7010660000000001174CEYLON PETROLEUM CRP                              240817000000
00007135103002675021258KUMARAGE A.J.       23000000000000001968459SLR7010660000000001174CEYLON PETROLEUM CRP                              240817000000
00007737103901100006019WIJESINGHE R.I.     23000000000000001295388SLR7010660000000001174CEYLON PETROLEUM CRP                              240817000000
00007135103200114622906JAYARATNE J.B.M.    23000000000000009358016SLR7010660000000001174CEYLON PETROLEUM CRP                              240817000000
00007056103008139008423KEERTHISINGHE J.D.  23000000000000000883190SLR7010660000000001174CEYLON PETROLEUM CRP                              240817000000
00007135103200230051286LANKANATH A.A.I.    23000000000000013764179SLR7010660000000001174CEYLON PETROLEUM CRP                              240817000000
00007135103002072035324KUMARA H.M.G.S.     23000000000000000969131SLR7010660000000001174CEYLON PETROLEUM CRP                              240817000000
00007728103000001739092CHANDRA KUMARA M.S. 23000000000000004378193SLR7010660000000001174CEYLON PETROLEUM CRP                              240817000000
00007737103001080047874VIPULAGUNA U.D.V.   23000000000000001310658SLR7010660000000001174CEYLON PETROLEUM CRP                              240817000000
00007737103001026026813SURAWEERA S.D.J.A.  23000000000000012813591SLR7010660000000001174CEYLON PETROLEUM CRP                              240817000000
00007135103200182488004MANEL N.K.G.        23000000000000006580557SLR7010660000000001174CEYLON PETROLEUM CRP                              240817000000
00007083103057020044321MANOHARAN T.        23000000000000004610509SLR7010660000000001174CEYLON PETROLEUM CRP                              240817000000
00007010103000076681709KUMARI H.M.P.S.     23000000000000006922522SLR7010660000000001174CEYLON PETROLEUM CRP                              240817000000
00007311103200410018893PRABATH W.D.A.S.    23000000000000002533745SLR7010660000000001174CEYLON PETROLEUM CRP                              240817000000
00007001103934100144415JAYASUNDARA H.R.K.S.23000000000000000339793SLR7010660000000001174CEYLON PETROLEUM CRP                              240817000000
00007278103100650091625HEMANTHA P.J.T.A.   23000000000000009599950SLR7010660000000001174CEYLON PETROLEUM CRP                              240817000000
00007083103007020409897KUMARA S.K.A.S.     23000000000000004277871SLR7010660000000001174CEYLON PETROLEUM CRP                              240817000000
00007454103102000057921ALAHAKONE S U       23000000000000010317496SLR7010660000000001174CEYLON PETROLEUM CRP                              240817000000
00007056103008860006153PRIYADARSHIKA L.K.L.23000000000000009480089SLR7010660000000001174CEYLON PETROLEUM CRP                              240817000000
00007135103200152485204NANDANI H.W.K.      23000000000000001363734SLR7010660000000001174CEYLON PETROLEUM CRP                              240817000000
00007056103008274179201CHANDANA Y.M.P.     23000000000000014902959SLR7010660000000001174CEYLON PETROLEUM CRP                              240817000000
00007135103200140031607NAGAHAWATTE N.A.R.D.23000000000000007467989SLR7010660000000001174CEYLON PETROLEUM CRP                              240817000000
00007010103000006032215PREMATHILAKA S.B.M.N.23000000000000010235384SLR7010660000000001174CEYLON PETROLEUM CRP                              240817000000
00007719103100220790168KUMARASIRI H V R L  23000000000000002776371SLR7010660000000001174CEYLON PETROLEUM CRP                              240817000000
00007083103007020427671WEERAKKODY S.P.     23000000000000001238312SLR7010660000000001174CEYLON PETROLEUM CRP                              240817000000
00007755103318010102919EHELIYAGODA D.R.M.R.S.23000000000000001792170SLR7010660000000001174CEYLON PETROLEUM CRP                              240817000000
00007278103101050227902KUMARI M.A.C.S.     23000000000000010565770SLR7010660000000001174CEYLON PETROLEUM CRP                              240817000000
00007010103000000206491MUNASINGHE G.S.     23000000000000003259351SLR7010660000000001174CEYLON PETROLEUM CRP                              240817000000
00007719103100100191108PUSHPAKUMARA H.J.   23000000000000006195754SLR7010660000000001174CEYLON PETROLEUM CRP                              240817000000
00007010103000084329322HETTIARACHCHI U.A.S.23000000000000000361272SLR7010660000000001174CEYLON PETROLEUM CRP                              240817000000
00007135103200150032751SANTHALINGAM K.     23000000000000005917572SLR7010660000000001174CEYLON PETROLEUM CRP                              240817000000
00007056103008553045801SAMARAJEEWA J.K.    23000000000000016714212SLR7010660000000001174CEYLON PETROLEUM CRP                              240817000000
00007083103007020407543RANASINGHE N.D.     23000000000000002532164SLR7010660000000001174CEYLON PETROLEUM CRP                              240817000000
00007287103006000002101DEEPANI K.D.N.      23000000000000008438604SLR7010660000000001174CEYLON PETROLEUM CRP                              240817000000
00007135103200180275175CHAMINDA G.         23000000000000008373793SLR7010660000000001174CEYLON PETROLEUM CRP                              240817000000
00007135103200280030554ABESIRI H.W.M.      23000000000000008704839SLR7010660000000001174CEYLON PETROLEUM CRP                              240817000000
00007278103103550051161NANAYAKKARA N.H.K.G.A.23000000000000003155858SLR7010660000000001174CEYLON PETROLEUM CRP                              240817000000
00007010103000000206412MALWATTA E.R.G.J.   23000000000000002617717SLR7010660000000001174CEYLON PETROLEUM CRP                              240817000000
00007135103200170003150ELAPATA R J G T M R E M23000000000000001428691SLR7010660000000001174CEYLON PETROLEUM CRP                              240817000000
00007311103200410025510BANDARA A.M.P.S.    23000000000000007398643SLR7010660000000001174CEYLON PETROLEUM CRP                              240817000000
00007135103200105337978BANDARA H.M.M.I.H.  23000000000000000925500SLR7010660000000001174CEYLON PETROLEUM CRP                              240817000000
00007135103200270006174DHARMAPALA D.V.A.D.A.N.23000000000000000618899SLR7010660000000001174CEYLON PETROLEUM CRP                              240817000000
00007083103007020443411GUNARATNE R P G N   23000000000000003201598SLR7010660000000001174CEYLON PETROLEUM CRP                              240817000000
00007100103931100132094AZOOR M A           23000000000000003936525SLR7010660000000001174CEYLON PETROLEUM CRP                              240817000000
00007010103000076774831ZOYSA M U L K       23000000000000002660842SLR7010660000000001174CEYLON PETROLEUM CRP                              240817000000
00007135103200283793391BANDARA A.W.M.P.    23000000000000001538809SLR7010660000000001174CEYLON PETROLEUM CRP                              240817000000
00007135103200112667422SUMANASIRI P G N    23000000000000004716919SLR7010660000000001174CEYLON PETROLEUM CRP                              240817000000
00007056103008130089535C.S.WANNIARACHCHI   23000000000000010259938SLR7010660000000001174CEYLON PETROLEUM CRP                              240817000000
00007719103107060169170SUMATHIPALA M.      23000000000000008066798SLR7010660000000001174CEYLON PETROLEUM CRP                              240817000000
00007135103200173823365ATTANAYAKE A.M.S.   230000000000000-1774734SLR7010660000000001174CEYLON PETROLEUM CRP                              240817000000
00007056103008530006185WIJESINGHE W.M.I.D. 23000000000000000424560SLR7010660000000001174CEYLON PETROLEUM CRP                              240817000000
00007100103908100037633SHIFAN S.M.         23000000000000003743030SLR7010660000000001174CEYLON PETROLEUM CRP                              240817000000
00007083103036020070801JAYAWEERA L.P.S.S.  23000000000000004815554SLR7010660000000001174CEYLON PETROLEUM CRP                              240817000000
00007083103007020402353GAMAGE U.           23000000000000002662926SLR7010660000000001174CEYLON PETROLEUM CRP                              240817000000
00007083103007020418761PERERA J J          23000000000000001232181SLR7010660000000001174CEYLON PETROLEUM CRP                              240817000000
00007135103200160013725SAMARAWICKRAMA M.   23000000000000013639203SLR7010660000000001174CEYLON PETROLEUM CRP                              240817000000
00007135103200250032697SILVA S.D.H.        23000000000000002415129SLR7010660000000001174CEYLON PETROLEUM CRP                              240817000000
00007135103200105182376DISSANAYAKA K.U.N.  23000000000000006064105SLR7010660000000001174CEYLON PETROLEUM CRP                              240817000000
00007135103200160006030KUMARA H.J.         23000000000000008199144SLR7010660000000001174CEYLON PETROLEUM CRP                              240817000000
00007135103200170442161SRI BANDARA R.M.H.C.23000000000000002384984SLR7010660000000001174CEYLON PETROLEUM CRP                              240817000000
00007083103000020481803THASIN M.H.M.       23000000000000007412623SLR7010660000000001174CEYLON PETROLEUM CRP                              240817000000
00007135103200188126564THILAKARATNE S.D.A. 23000000000000003767258SLR7010660000000001174CEYLON PETROLEUM CRP                              240817000000
00007719103109060146676KURUNERU D.S.       23000000000000006926373SLR7010660000000001174CEYLON PETROLEUM CRP                              240817000000
00007135103200141343289TIKIRIBANDA H.M.    23000000000000001437267SLR7010660000000001174CEYLON PETROLEUM CRP                              240817000000
00007135103200140027548MAHAGEDARA J P J    23000000000000002525683SLR7010660000000001174CEYLON PETROLEUM CRP                              240817000000
00007010103000070598737GAMINI W.K.         23000000000000002364983SLR7010660000000001174CEYLON PETROLEUM CRP                              240817000000
00007010103000076513931DISSANAYAKE G.K.A.  23000000000000002514998SLR7010660000000001174CEYLON PETROLEUM CRP                              240817000000
00007135103200100039497KULAWANSA P.A.      23000000000000001286690SLR7010660000000001174CEYLON PETROLEUM CRP                              240817000000
00007719103100050164186LUXMAN K.G.         23000000000000003595354SLR7010660000000001174CEYLON PETROLEUM CRP                              240817000000
00007010103000078422327JAYASINGHE A W N P  23000000000000003622261SLR7010660000000001174CEYLON PETROLEUM CRP                              240817000000
00007008103947100197806SILVA K L S         23000000000000000535493SLR7010660000000001174CEYLON PETROLEUM CRP                              240817000000
00007135103200183418672PRIYANTHA E.M.A.    23000000000000001749680SLR7010660000000001174CEYLON PETROLEUM CRP                              240817000000
00007010103000082725744PIYAL R.M.          23000000000000012283352SLR7010660000000001174CEYLON PETROLEUM CRP                              240817000000
00007135103200140034402WIMALADHARMA S G M S K23000000000000005332319SLR7010660000000001174CEYLON PETROLEUM CRP                              240817000000
00007010103000076374447JAYASURIYA W.A.S.M. 23000000000000006587709SLR7010660000000001174CEYLON PETROLEUM CRP                              240817000000
00007728103000002526454ALUTHGE D.G.        23000000000000006397396SLR7010660000000001174CEYLON PETROLEUM CRP                              240817000000
00007311103200410013782PERERA M.U.S.       23000000000000002843715SLR7010660000000001174CEYLON PETROLEUM CRP                              240817000000
00007010103000073186405GUNATHILAKE N.S.P.  23000000000000010181382SLR7010660000000001174CEYLON PETROLEUM CRP                              240817000000
00007083103007020437173ABEYSEKARA W L      23000000000000016923761SLR7010660000000001174CEYLON PETROLEUM CRP                              240817000000
00007719103100150461296WIJEKOON D.W.M.H.V.D.23000000000000006573596SLR7010660000000001174CEYLON PETROLEUM CRP                              240817000000
00007083103007020421394KUMARI P H D T      23000000000000001375777SLR7010660000000001174CEYLON PETROLEUM CRP                              240817000000
00007083103007020422524ABESINGHE A.M.      23000000000000002378474SLR7010660000000001174CEYLON PETROLEUM CRP                              240817000000
00007737103001026014922ASANGA K.A.D.       23000000000000007955990SLR7010660000000001174CEYLON PETROLEUM CRP                              240817000000
00007010103000003474576SENEVIRATNE J.A.S.  23000000000000011871960SLR7010660000000001174CEYLON PETROLEUM CRP                              240817000000
00007135103200150009350NAWANEETHAN V.      23000000000000002279017SLR7010660000000001174CEYLON PETROLEUM CRP                              240817000000
00007010103000004907960SUMANARATNE B.G.S.  23000000000000008732179SLR7010660000000001174CEYLON PETROLEUM CRP                              240817000000
00007764103006020119782SOMADASA U.G.J.N.   23000000000000002962178SLR7010660000000001174CEYLON PETROLEUM CRP                              240817000000
00007010103000071106848KARUNARATNE W A S S 23000000000000008977383SLR7010660000000001174CEYLON PETROLEUM CRP                              240817000000
00007135103200140011006AMARASINGHE R.N.    23000000000000002656820SLR7010660000000001174CEYLON PETROLEUM CRP                              240817000000
00007287103034418593101GAMAGE A.D.R.       23000000000000012667784SLR7010660000000001174CEYLON PETROLEUM CRP                              240817000000
00007135103200120032762BALAKRISHNAN M.     23000000000000004801711SLR7010660000000001174CEYLON PETROLEUM CRP                              240817000000
00007135103200273813993MILTON G D          23000000000000001057570SLR7010660000000001174CEYLON PETROLEUM CRP                              240817000000
00007311103200410023318JAYAKODY J.A.M.     23000000000000010221063SLR7010660000000001174CEYLON PETROLEUM CRP                              240817000000
00007135103200110452643FERNANDO W.J.N.     23000000000000005713159SLR7010660000000001174CEYLON PETROLEUM CRP                              240817000000
00007010103000005512622KIRIBANDA M.G.      23000000000000008695221SLR7010660000000001174CEYLON PETROLEUM CRP                              240817000000
00007010103000081555496RAIGAMA D           23000000000000001069332SLR7010660000000001174CEYLON PETROLEUM CRP                              240817000000
00007311103200410020834ABEYWARDENE P.G.H.S.23000000000000003138947SLR7010660000000001174CEYLON PETROLEUM CRP                              240817000000
00007135103200180550980WASANTHA E.A.D.     23000000000000016297419SLR7010660000000001174CEYLON PETROLEUM CRP                              240817000000
00007083103007020444207BIYANWILA B.T.D.A.  23000000000000001117546SLR7010660000000001174CEYLON PETROLEUM CRP                              240817000000
00007311103200410020843PERERA P.N.         23000000000000006900593SLR7010660000000001174CEYLON PETROLEUM CRP                              240817000000
00007103103995100394942EKANAYAKE E.M.M.    23000000000000004074127SLR7010660000000001174CEYLON PETROLEUM CRP                              240817000000
00007278103100450365798WIJESINGHE W.M.A.B. 23000000000000006209354SLR7010660000000001174CEYLON PETROLEUM CRP                              240817000000
00007083103007020402487GAMINI M.W.A.       23000000000000002231501SLR7010660000000001174CEYLON PETROLEUM CRP                              240817000000
00007311103200410015036SIRISENA K.D.       23000000000000001029569SLR7010660000000001174CEYLON PETROLEUM CRP                              240817000000
00007010103000008347177WEERASINGHE S.G.    23000000000000001934617SLR7010660000000001174CEYLON PETROLEUM CRP                              240817000000
00007764103024020033213KUMARASIRI A.M.D.S. 23000000000000000154479SLR7010660000000001174CEYLON PETROLEUM CRP                              240817000000
00007135103200141348138WEERASINGHE M.G.U.  23000000000000002491933SLR7010660000000001174CEYLON PETROLEUM CRP                              240817000000
00007311103200410013108PUSHPAKUMARA A.R.U. 23000000000000001225466SLR7010660000000001174CEYLON PETROLEUM CRP                              240817000000
00007135103200352502924KUMARA A.J.P.M.S.   23000000000000003882375SLR7010660000000001174CEYLON PETROLEUM CRP                              240817000000
00007010103000087288213PEIRIS J.S.K.       23000000000000001861387SLR7010660000000001174CEYLON PETROLEUM CRP                              240817000000
00007135103200211336468DE MEL W.S.P.       230000000000000-1089396SLR7010660000000001174CEYLON PETROLEUM CRP                              240817000000
00007135103200220445474ARUNA I.P.          23000000000000003073603SLR7010660000000001174CEYLON PETROLEUM CRP                              240817000000
00007010103000070718022DESHAPPRIYA H.A.P.  23000000000000001136626SLR7010660000000001174CEYLON PETROLEUM CRP                              240817000000
00007083103007020413270CHANDRADASA W.M.A.L.K.23000000000000003654211SLR7010660000000001174CEYLON PETROLEUM CRP                              240817000000
00007135103200190094163DHARMASENA S.M.     23000000000000000819951SLR7010660000000001174CEYLON PETROLEUM CRP                              240817000000
00007311103200410009277SILVA M R S         23000000000000010537608SLR7010660000000001174CEYLON PETROLEUM CRP                              240817000000
00007083103000205768014DE SILVA P.G.S.N.A. 23000000000000004495850SLR7010660000000001174CEYLON PETROLEUM CRP                              240817000000
00007135103200116611137ANDREW D.A.D.C.L.   23000000000000008306141SLR7010660000000001174CEYLON PETROLEUM CRP                              240817000000
00007755103126012001376GUNATHILAKA S B M   23000000000000002877242SLR7010660000000001174CEYLON PETROLEUM CRP                              240817000000
00007001103920100086917UDAYA KUMARA D.G.C. 230000000000000-1006682SLR7010660000000001174CEYLON PETROLEUM CRP                              240817000000
00007135103200140032803KETHARASA K         23000000000000002355462SLR7010660000000001174CEYLON PETROLEUM CRP                              240817000000
00007719103100600557170BANDARA J.M.N.R.    23000000000000001807213SLR7010660000000001174CEYLON PETROLEUM CRP                              240817000000
00007010103000080417047KARUNARATNE P K R R 23000000000000001455170SLR7010660000000001174CEYLON PETROLEUM CRP                              240817000000
00007135103002070385855SISIRA KUMARA U.K.U.23000000000000000683833SLR7010660000000001174CEYLON PETROLEUM CRP                              240817000000
00007135103200550026408HEWAVITHARANA L N   23000000000000009923524SLR7010660000000001174CEYLON PETROLEUM CRP                              240817000000
00007135103200200060440LALITH HEMATHILLEKE E.A.23000000000000011854043SLR7010660000000001174CEYLON PETROLEUM CRP                              240817000000
00007135103002070540770RATNAYAKE R.M.N.    23000000000000003011195SLR7010660000000001174CEYLON PETROLEUM CRP                              240817000000
00007056103008790007034PANAPITIYA P K D L  23000000000000004474084SLR7010660000000001174CEYLON PETROLEUM CRP                              240817000000
00007010103000078230277JAYASINGHE M.P.D.C.K.23000000000000001090881SLR7010660000000001174CEYLON PETROLEUM CRP                              240817000000
00007010103000077271142ATHULA W P          23000000000000001879394SLR7010660000000001174CEYLON PETROLEUM CRP                              240817000000
00007728103000001442742JAYANATH R K K      23000000000000000084342SLR7010660000000001174CEYLON PETROLEUM CRP                              240817000000
00007719103100010435066MAHANAMA R M S M T  23000000000000010318897SLR7010660000000001174CEYLON PETROLEUM CRP                              240817000000
00007083103007020402414JAYAWARDENA A M     23000000000000001879311SLR7010660000000001174CEYLON PETROLEUM CRP                              240817000000
00007010103000000092427RUWAN KUMARA R A G S23000000000000003578280SLR7010660000000001174CEYLON PETROLEUM CRP                              240817000000
00007056103008277747901W.MASAKORALA        23000000000000013328176SLR7010660000000001174CEYLON PETROLEUM CRP                              240817000000
00007010103000080351256ABEYSINGHE A M S    23000000000000002735670SLR7010660000000001174CEYLON PETROLEUM CRP                              240817000000
00007083103007020414613RATNAYAKE R.R.R.    23000000000000003770437SLR7010660000000001174CEYLON PETROLEUM CRP                              240817000000
00007083103164020060595MEHANATHAN K.P.     23000000000000014794421SLR7010660000000001174CEYLON PETROLEUM CRP                              240817000000
00007737103100710044422GAJASINGHE G.W.T.M.G.P.23000000000000001973019SLR7010660000000001174CEYLON PETROLEUM CRP                              240817000000
00007755103116010111634AMARASINGHE G U     23000000000000002810026SLR7010660000000001174CEYLON PETROLEUM CRP                              240817000000
00007719103100050404730KARUNARATNE R.M.K.  23000000000000001871300SLR7010660000000001174CEYLON PETROLEUM CRP                              240817000000
00007010103000077599105SENEVIRATNE S.D.M.M.B.23000000000000003120566SLR7010660000000001174CEYLON PETROLEUM CRP                              240817000000
00007100103928100119773WILWALAARACHCHI I.M.23000000000000003515503SLR7010660000000001174CEYLON PETROLEUM CRP                              240817000000
00007005103957100238876ILANGAMAGE V.K.     23000000000000009672671SLR7010660000000001174CEYLON PETROLEUM CRP                              240817000000
00007010103000071443357RANJITH U G         23000000000000002441454SLR7010660000000001174CEYLON PETROLEUM CRP                              240817000000
00007454103102000551969GUNASEKERA D.W.N.U. 23000000000000015077950SLR7010660000000001174CEYLON PETROLEUM CRP                              240817000000
00007010103000009239669JAYASINGHE J G P K  23000000000000001148638SLR7010660000000001174CEYLON PETROLEUM CRP                              240817000000
00007135103002071644015WICKRAMASINGHE W.M.G.B.23000000000000000942474SLR7010660000000001174CEYLON PETROLEUM CRP                              240817000000
00007719103100150477664ALWIS E.D.V.S.      23000000000000003401406SLR7010660000000001174CEYLON PETROLEUM CRP                              240817000000
00007719103107910124575DHANAWANSA M G      23000000000000003441955SLR7010660000000001174CEYLON PETROLEUM CRP                              240817000000
00007010103000081017668KUMARA K.U.S.       23000000000000002805856SLR7010660000000001174CEYLON PETROLEUM CRP                              240817000000
00007083103007020410839SIRIWARDANA K.M.G.P.K.23000000000000001876854SLR7010660000000001174CEYLON PETROLEUM CRP                              240817000000
00007311103200410025918CHAMINDA K.B.S.N.   23000000000000001798042SLR7010660000000001174CEYLON PETROLEUM CRP                              240817000000
00007010103000005039498HISHAM M.J.M.       23000000000000004103473SLR7010660000000001174CEYLON PETROLEUM CRP                              240817000000
00007719103109020193704NIYAS S.M.          23000000000000002565488SLR7010660000000001174CEYLON PETROLEUM CRP                              240817000000
00007719103100151620916HERATH H.M.G.       23000000000000001950358SLR7010660000000001174CEYLON PETROLEUM CRP                              240817000000
00007135103002075018857KUMARA A.P.R.A.     23000000000000001045056SLR7010660000000001174CEYLON PETROLEUM CRP                              240817000000
00007083103007020419335WEERASURIYA C I     23000000000000000824535SLR7010660000000001174CEYLON PETROLEUM CRP                              240817000000
00007135103200181683860PAREGAMA S D J      23000000000000012871084SLR7010660000000001174CEYLON PETROLEUM CRP                              240817000000
00007135103200150028737WIJERATNA W.M.I.G.  23000000000000007613144SLR7010660000000001174CEYLON PETROLEUM CRP                              240817000000
00007083103007020414385GUNASEKERA M.P.     23000000000000003175336SLR7010660000000001174CEYLON PETROLEUM CRP                              240817000000
00007755103205010113708HETTIARACHCHI H.A.S.23000000000000002570343SLR7010660000000001174CEYLON PETROLEUM CRP                              240817000000
00007083103007020409879KUMARA K.A.S.N.     23000000000000009443285SLR7010660000000001174CEYLON PETROLEUM CRP                              240817000000
00007737103603100011694WIJESEKARA W A C    23000000000000001395375SLR7010660000000001174CEYLON PETROLEUM CRP                              240817000000
00007056103008130028207EKENAYAKE E.G.M.B.  23000000000000001111517SLR7010660000000001174CEYLON PETROLEUM CRP                              240817000000
00007719103100840277444UDURAWANA B.D.R.S.B.23000000000000012446726SLR7010660000000001174CEYLON PETROLEUM CRP                              240817000000
00007083103007020415056SUBASINGHE S.A.A.K. 23000000000000009863729SLR7010660000000001174CEYLON PETROLEUM CRP                              240817000000
00007719103100560369993ATTANAYAKE A.G.A.S.B.23000000000000004919267SLR7010660000000001174CEYLON PETROLEUM CRP                              240817000000
00007135103200190038861WELIVITA K.M.H.K.B. 23000000000000003918293SLR7010660000000001174CEYLON PETROLEUM CRP                              240817000000
00007287103952100218341KUMARASIRI W.N.     23000000000000013831716SLR7010660000000001174CEYLON PETROLEUM CRP                              240817000000
00007764103006020132118ABEYRATNA R.M.L.M.  23000000000000000950773SLR7010660000000001174CEYLON PETROLEUM CRP                              240817000000
00007010103000000206059RUWAN KUMARIL.G.J.  23000000000000006935800SLR7010660000000001174CEYLON PETROLEUM CRP                              240817000000
00007135103200190018980CHANDRASEKARA A.M.G.G.23000000000000003537654SLR7010660000000001174CEYLON PETROLEUM CRP                              240817000000
00007135103200120009691SAHINTHAN P.V.      23000000000000010722029SLR7010660000000001174CEYLON PETROLEUM CRP                              240817000000
00007135103200165637052MAHINDA K.A.        23000000000000001580944SLR7010660000000001174CEYLON PETROLEUM CRP                              240817000000
00007056103008781137301SENADEERA J.P.S.K.  23000000000000014301516SLR7010660000000001174CEYLON PETROLEUM CRP                              240817000000
00007083103007020402043SERASINGHE H.U.K.   23000000000000001035947SLR7010660000000001174CEYLON PETROLEUM CRP                              240817000000
00007056103008600004452WEERASURIYA W.M.L.  23000000000000006798111SLR7010660000000001174CEYLON PETROLEUM CRP                              240817000000
00007278103100550305113KANCHANAMALA R P U  23000000000000014624272SLR7010660000000001174CEYLON PETROLEUM CRP                              240817000000
00007100103941100173164PREMAWARDENA P M R  23000000000000004078684SLR7010660000000001174CEYLON PETROLEUM CRP                              240817000000
00007135103200272654731RANASINGHE U.G.U.   23000000000000000915131SLR7010660000000001174CEYLON PETROLEUM CRP                              240817000000
00007083103007020412147JAYARATNE H G L     23000000000000000085148SLR7010660000000001174CEYLON PETROLEUM CRP                              240817000000
00007135103200170032750VASEEKARAN S.       23000000000000002240281SLR7010660000000001174CEYLON PETROLEUM CRP                              240817000000
00007083103007020410130ABAYASIRI W D U     23000000000000008020602SLR7010660000000001174CEYLON PETROLEUM CRP                              240817000000
00007010103000077585559ABEYSIRI W.C.R.P.   23000000000000010721668SLR7010660000000001174CEYLON PETROLEUM CRP                              240817000000
